:020000040800F2
:10000000B0200020FD010008E14600080D32000884
:10001000A93E00086B260008877C0008000000004D
:10002000000000000000000000000000CD65000896
:10003000092A000800000000A1490008E166000844
:10004000170200081702000817020008170200082C
:10005000170200081702000817020008170200081C
:10006000170200081702000817020008170200080C
:1000700017020008170200081702000817020008FC
:1000800017020008170200081702000817020008EC
:1000900017020008170200081702000817020008DC
:1000A00017020008170200081702000817020008CC
:1000B000856900089D690008E969000817020008C1
:1000C00017020008170200081702000817020008AC
:1000D00017020008A97B0008D17B0008F97B000803
:1000E000170200081702000817020008170200088C
:1000F000956A000817020008170200081702000896
:1001000017020008F94D0008356A000817020008B8
:100110000572000829720008516A0008796A00080F
:10012000170200081702000817020008170200084B
:1001300000F002F800F053F80AA090E8000C8244A6
:100140008344AAF10107DA4501D100F048F8AFF283
:10015000090EBAE80F0013F0010F18BFFB1A43F0A5
:1001600001031847ECF600000CF70000103A24BF1A
:1001700078C878C1FAD8520724BF30C830C144BF0C
:1001800004680C607047000000230024002500264E
:10019000103A28BF78C1FBD8520728BF30C148BFEA
:1001A0000B60704766290BF04487642900F0D0800B
:1001B000732900F04286002070471FB501F0D8F87F
:1001C0000400002000210AF04DFD401C606000206A
:1001D00000210AF031FDE0601FBD10B510BD01F037
:1001E00089FB1146FFF7E9FF09F074FC01F0D6FD29
:1001F00003B4FFF7F2FF03BC07F030FE0948804765
:1002000009480047FEE7FEE7FEE7FEE7FEE7FEE7F8
:10021000FEE7FEE7FEE7FEE704480549054A064B10
:1002200070470000E566000831010008B0080020B2
:10023000B0200020B0100020B0100020704710B592
:100240004C1084EA530404D54042C1F1000138BF88
:10025000491E1B4204D55242C3F1000338BF5B1E46
:1002600000F0D4FA14F0804F04D04042C1F10001F4
:1002700038BF491E14F0004F04D05242C3F10003AE
:1002800038BF5B1E10BD00000FB41CB5074B06AA9B
:100290007B4469460090059800F0A5FD0020694662
:1002A00000F0B4FD1CBC5DF814FB0000790B0000ED
:1002B00070B5044685690068C10601D5302600E0A6
:1002C0002026C00707D070BDD4E9012130469047F1
:1002D000206A401C20626D1EF6D570BD70B50446C4
:1002E00085690078C00707D170BDD4E901212020BD
:1002F0009047206A401C20626D1EF6D570BD70B517
:100300000C460546012A05D02878800600D5EA6902
:10031000002302E0012305E05B1C934202D2E05C73
:100320000028F9D1A869E618C01AA861286A1844FB
:1003300028622846FFF7BCFF04E0D5E9012114F844
:10034000010B9047B442F8D32846FFF7C7FF70BDB2
:100350002DE9F0410646002410687529314616A59E
:1003600010D0AFF30080002802DA404213A507E066
:1003700031688A0701D512A502E0490704D511A505
:10038000012401E0AFF3008000210A2206F12407D6
:1003900009E0B0FBF2FCB0FBF2F302FB1C003030D2
:1003A00078541846491C0028F3D123462A46304683
:1003B000BDE8F04100F0ACBA000000002D000000E4
:1003C0002B000000200000002DE9F05F8946044664
:1003D0004FF0000ADFF874B1FB44C0F820A02046BB
:1003E000E1688847002874D0252806D0D4E9012187
:1003F0009047206A401C2062F1E700265F462046B5
:10040000E16888472028054607DB312D05D2781999
:1004100010F8200C08B10643F1E7B00701D526F02B
:100420000406C4F81CA00027C4F818A02A2D09D07F
:10043000284607F00CFD38B304EB8708303DC8F8B8
:10044000185019E059F8041B204604EB870291610B
:10045000E1688847012F054618D1E069002820DAB5
:1004600026F020061DE0D8F8180000EB800005EB10
:1004700040003038C8F818002046E1688847054633
:1004800007F0E5FC0028EED1012F0AD02E2D08D16F
:100490002046E16888477F1C0546022F46F020066B
:1004A000C4DBA069002803DA404246F00106A061DF
:1004B000F00701D026F010066C2D0BD0682D09D066
:1004C0004C2D39D06A2D35D0742D35D07A2D33D0BE
:1004D00016E038E0E1682F4620468847B8420546D6
:1004E00009D16C2F26D04FF48060E1680643204686
:1004F0008847054604E06C2F1AD04FF480700643FD
:100500000DB3A5F14100192802D8203546F4006644
:100510004A462946204626604E46FFF743FE80B1F4
:1005200001280BD0F61D26F0070000F1080956E758
:100530004020E4E78020D8E70020D6E706F1040950
:100540004DE7284652E7206ABDE8F09F66F20000BA
:100550000FB400B58DB010A9099000910B904FF029
:10056000FF300A9000200C90064878440690064818
:1005700078446A4607900F9909A800F0C9FE0DB0AB
:100580005DF814FBC30D0000DB0D00002DE9FF5FDB
:100590001D464FF0FF3B91464FF000085F46D5E9FE
:1005A0000146A96901987F1C8847296A82468847C5
:1005B0000028F6D1BAF1FF3F0CD0002E24F4C0641D
:1005C00019DD600614D5BAF12B0F09D0BAF12D0F41
:1005D0000ED103E0584604B0BDE8F09F44F48064B7
:1005E000A96901987F1C8847761E8246002E02DD8D
:1005F000BAF1300F03D0B9F1000F26D032E0A9696B
:10060000761E01987F1C44F400748847002E8246B1
:1006100005DDBAF1780F06D0BAF1580F03D0B9F161
:10062000000F10D01EE0B9F1000F02D0B9F1100F89
:1006300018D1A969761E01987F1C24F4007488479C
:100640008246102002E0082000E00A20814609E0EE
:10065000A96908FB0908761E01987F1C44F4007400
:1006600088478246002E05DD4946504600F0E9FBEA
:100670000028EDDAE96901988847A00502D46FF0F7
:100680000100A8E7E00725D1600613D5600502D573
:10069000C8F1000000E0404629680A1D2A60096888
:1006A000220501D5087015E0220701D5088011E068
:1006B00008600FE02868011D29600068210502D547
:1006C00080F8008006E0210702D5A0F8008001E054
:1006D000C0F8008038467EE710B5431C02E010F8F1
:1006E000011B71B18107FAD14FF0013202C88C1A97
:1006F0008C4314EAC211F9D0C01A0A0603D0C01EF6
:1007000010BDC01A10BD0A0401D0801E10BD090220
:10071000FCD0401E10BD032A40F2308010F0030CC4
:1007200000F0158011F8013BBCF1020F624498BF44
:1007300011F801CB00F8013B38BF11F8013BA2F1E1
:10074000040298BF00F801CB38BF00F8013B11F05C
:10075000030300F02580083AC0F0088051F8043BFC
:10076000083A51F804CBA0E80810F5E7121D5CBF69
:1007700051F8043B40F8043BAFF30080D20724BF9C
:1007800011F8013B11F801CB48BF11F8012B24BF30
:1007900000F8013B00F801CB48BF00F8012B70477F
:1007A00010B5203AC0F00B80B1E81850203AA0E80C
:1007B0001850B1E81850A0E81850BFF4F5AF5FEA40
:1007C000027C24BFB1E81850A0E8185044BF18C9F3
:1007D00018C0BDE810405FEA827C24BF51F8043B9A
:1007E00040F8043B08BF7047D20728BF31F8023BEE
:1007F00048BF11F8012B28BF20F8023B48BF00F882
:10080000012B7047704770477047704753EA020CDE
:1008100000F069802DE9F04B4FF00006002B1FBF60
:10082000B3FA83F503FA05F424FA05F65E4012BF25
:100830001643B2FA82F502FA05F4C5F120051EBF8F
:1008400022FA05FC44EA0C04203556EA044C4FEA2F
:10085000144418BF641C4FF000084FF00009904288
:1008600071EB030C39D3002919BFB1FA81F701FAF2
:1008700007F6B0FA80F700FA07F6C7F120071EBFA7
:1008800020FA07FC46EA0C062037B6FBF4FCA7EB7F
:100890000507103F07F01F0BCBF120060CFA0BFBEE
:1008A0002CFA06F644BFB3460026202FA4BF5E46AE
:1008B0004FF0000B5BEA060C08BF4FF0010B19EB81
:1008C0000B09ABFB027C48EB0608C01B06FB02CC05
:1008D0000BFB03CC71EB0C01C1E70B460246414612
:1008E0004846BDE8F08B13B54FF000004FF0000113
:1008F000AFF30080BDE81C40704710B500F03CFD30
:10090000006810BD10B5044600F036FD046010BD4F
:100910002DE9F0470D4699469246044600F1240819
:100920000168880604D5E06921F01001216000E02B
:100930000120A84201DD471B00E00027A1697A19C8
:1009400002EB0900081AA0612078C00602D42046F4
:10095000FFF7AEFC002608E0D4E901211AF80600F2
:100960009047206A401C761C20624E45F4DB2078BC
:10097000C0060AD52046FFF79BFC06E0D4E901211A
:1009800030209047206A401C2062381EA7F10107E2
:10099000F4DC07E0D4E9012118F805009047206A4B
:1009A000401C2062281EA5F10105F3DC2046FFF75C
:1009B00095FC2078000602D50220BDE8F0870120D2
:1009C000FBE770472DE9FF4F0C461E464FF0FF37FF
:1009D0008BB0D2E90001DDF860800A908A46C1F34D
:1009E0000A5505B93D46002108464FF00000BAF10E
:1009F000000F00F4400005DA00EB80004FF44001E6
:100A000001EA50004FEA9059B9F1010F00DDB946F3
:100A10000A9850EA4A000ED044F61050A5F2FF356D
:100A200045432F14B8F1000F1ED07542291E1EDD5C
:100A3000C9F100021CE0B8F1010F4FF0000001D035
:100A4000302103E0F24305E02154401CB042FBDBBF
:100A500030460022002121540B99C1F80880C1E9D9
:100A600000200FB0BDE8F08FBD1B6D1CDEE74A46CD
:100A700000DA694206A800F0CBFE06AB93E8070057
:100A800003AB83E8070050460A9901F0E0F98DE8CE
:100A90000700A0F500501F3800900398002D09DDD5
:100AA00042F21F014A46084403A90390684601F038
:100AB0006AFC08E0A0F500504A461F3803A90390DD
:100AC000684601F088FC8DE807000004000C03D0A4
:100AD0004FF0FF30410800E01046B8F1000F03D09E
:100AE0000022009215461EE0751E05D400F048FC59
:100AF000303262556D1EF9D5B3460122084302D04B
:100B000000227F1C04E02078302801D100227F1EC3
:100B1000002A099786D01DE0112D07DA00F030FC7D
:100B2000303262556D1C50EA0102F5D1084302D003
:100B30000098C8B10EE00021681E05E0235C625CED
:100B400063542254401E491C8142F7DBAB46A81B6C
:100B5000401E0990002004F80B000B98099AC0F879
:100B60000880C0E9002B7CE711264FF0000859E708
:100B70002DE9F04F88460446D21D22F0070191B0BE
:100B8000D1E90001CDE90A0107F07FF802460B9890
:100B9000C00F01D02D2007E02068810701D52B2050
:100BA00002E0202101EAC000032A099001D0072AAF
:100BB00005DB03464146204600F030FC0BE120787F
:100BC000800601D5E06900E00620B8F1650F814696
:100BD00006D0B8F1660F18D0B8F1670F70D131E0C8
:100BE0000020B9F1110F009001DB112301E009F1A0
:100BF00001030AAA01A90CA8FFF7E4FEDDE90C70C5
:100C0000002609F10105834647E001204B4600908C
:100C10004FF000470AAA01A90CA8FFF7D3FEDDE9AF
:100C20000DB00C995D46002610B909F101000D18B0
:100C3000B9EB050003D4C0F1FF3609F10105A5EBBE
:100C400009002BE0B9F1010F01DA4FF00109002092
:100C5000B9F1110F0090484601DD112300E0034671
:100C60000AAA01A90CA8FFF7ADFEDDE90C704D46FC
:100C700000268346207800070AD4AB4500DA5D469B
:100C800001A8012D04DD411911F8011C302907D0FC
:100C90004F4502DA17F1040F04DA012082460FE013
:100CA0006D1EEEE7002F02DCED1B3E4403E0781CD6
:100CB000A84200DD7D1CB81B00F1010A4FF000477F
:100CC0002078000703D4AA4501DB4FF0FF3A00214A
:100CD000B7F1004F0DF143088DF8431024D00220E6
:100CE0002B23002F01DA7F422D230A21021EA0F1BF
:100CF000010000DC5FB197FBF1FC97FBF1F201FB17
:100D00001C7C17460CF1300C08F801CDEEE7A8F179
:100D1000010003702188090501D5452100E0652106
:100D2000A0F1010800F8011C09980FA9A1EB080720
:100D3000FF1D00B10120411901EBEA70A16938449F
:100D4000081A401EA0612078C00602D42046FFF792
:100D5000AFFA099828B1D4E901219047206A401CD4
:100D600020622078C00622D52046FFF7A1FA1EE0B7
:100D7000002E04DBB34502DD01A8805D00E03020D9
:100D8000D4E901219047206A401C2062761CAAF118
:100D900001005FEA000A0AD100F0EAFAC0680168BF
:100DA000405CD4E901219047206A401C2062281E43
:100DB000A5F10105DCDC07E0D4E9012118F8010BFD
:100DC0009047206A401C2062381EA7F10107F3DC1F
:100DD0002046FFF783FA032011B043E601694A1C5D
:100DE00002610878704700B58FB0CDE9013100216C
:100DF000059105497944CDE9031011466846FFF78E
:100E0000E3FA0FB000BD0000E5FFFFFF0A6802F83B
:100E1000010B0A60704710B5436913B1AFF300804E
:100E200001E0FFF76CFA012010BD127800F12401F7
:100E30000A7000224A700122EDE711684FF0FF327C
:100E4000E9E73A2800D2303820F02002412A01D3C5
:100E5000A2F13700884201D34FF0FF307047000005
:100E60002DE9FF4F064689B00878FF2806D0491CB7
:100E70002D2805D000244FF0000908E000200CE0E8
:100E80000124F8E709EB8903491C00EB43090878C2
:100E9000FF28F7D114B1C9F1000081461078002570
:100EA0002C46AA4629462D2801D02B2804D1521CB5
:100EB0002D2813D0002082468B461078FF280FD0B3
:100EC0004FF0000C0A21521CA5FB017804FB0181A4
:100ED00005FB0C11C5194BEB0104EEE70120EAE715
:100EE000002108464FF00000BAF1000F02D000EBDD
:100EF00080004008C0F38158B8F1010F01DD4FF0C8
:100F0000FF380C9809EB000755EA040009D04FF0B0
:100F1000020917F5FA7F0BDA4FEACA70C6E900B08A
:100F200012E04FEACA70C6E900B00DB0BDE8F08F1C
:100F3000B7F5FA7F0DDDF0487844D0E90010C6E936
:100F4000001040EACA70706000F016FAC0F8009015
:100F5000EBE7391E02DAC8F1000200E0424600DA8F
:100F6000794206A800F054FC06AB93E8070003ABF7
:100F700083E8070044F23E005BEA04010090584613
:100F800004D144F21E012C465D460091210C090457
:100F9000014306D10099240444EA15442D04103974
:100FA000009104F07F41014306D10099240244EAF4
:100FB00015642D020839009104F07041014306D1F7
:100FC0000099240144EA15742D01091F009104F0D1
:100FD0004041014306D10099A40044EA9574AD0054
:100FE000891E009104F00041084304D100986D1956
:100FF0006441401E009042466846002FCDE90145FD
:1010000003A902DD01F0FBF901E001F0D0F9BAF12A
:10101000000F04460D4601D084F0004440F2FF77F3
:1010200024F00040284303D0C4F30A50B84212D140
:1010300000F0A2F9C0F80090C4F30A50B8420AD1F7
:10104000AE487844D0E90010C6E9001004F0004131
:101050000843706069E7C6E9005466E72DE9FF4F71
:101060001F464FF0000A4FF0FF38454691B0D7E9D0
:101070000146CDF83CA000F07BF9C0680168405CF7
:101080001090B96912986D1C8847396A8146884763
:101090000028F6D1B9F1FF3F0AD0002E24F4D06425
:1010A00011DDB9F12B0F08D0B9F12D0F0BD102E0F2
:1010B000404615B03AE744F48064B96912986D1C53
:1010C0008847761E8146600504A901D52D2000E0E1
:1010D0002B20002E01F1010B0DF130088DF81000CE
:1010E0003FDDB9F1690F08D0B9F1490F05D0B9F169
:1010F0006E0F02D0B9F14E0F1CD13B4601A80095EE
:1011000080E85002DDE912126FF002000AF0F7FFEA
:10111000C11CCED10EE0B96912986D1C884781467A
:101120001398761E44F4007405600F98401C002E3E
:101130000F9016DDB9F1300FEDD0B9F1780F02D074
:10114000B9F1580F0DD10F9801280AD13B46CDE9CE
:101150000054DDE91212001F02960AF0CEFFC11CF6
:10116000A7D1109989453ED144F0800406E0139937
:10117000681CAAF1010A44F400740860B9696D1C86
:101180001298761E884730288146F0D02BE01099BF
:10119000894505D1200603D4761E44F0800418E06A
:1011A000484606F054FE08B3761E0DF123018B4528
:1011B00044F4007408D2A9F130000BF8010B2006AA
:1011C00007D5AAF1010003E0200602D40AF10100CC
:1011D0008246A00502D51399681C0860B969129867
:1011E0006D1C88478146002ED1DC53E0002E51DD76
:1011F000B9F1650F02D0B9F1450F4BD1A00549D522
:10120000B9696D1C1298761E24F440748847002E2C
:1012100081460CDD2B2804D0B9F12D0F07D144F401
:101220008074B96912986D1C8847761E8146E00566
:1012300001D52D2100E02B2108F8011BCDF80080FD
:1012400021E0761E0DF13901884544F400740CD27A
:10125000A9F1300010F0FF0088F8000002D10099D9
:10126000884509D908F1010806E0E00501D52448C0
:1012700001E042F20F708246B96912986D1C8847EE
:10128000814613980560002E04DD484606F0DFFD18
:101290000028D6D1F96912988847FF2053468BF869
:1012A000000088F8000000200A900B9004AA0CA906
:1012B0000AA8FFF7D5FDA00502D46FF00100F8E6FB
:1012C00014F0240F0AD0E00714D13868DDE90A12BF
:1012D000031D3B600068C0E900120BE00AA96846E4
:1012E00006F05EFDE00705D13868009A011D3960FF
:1012F000006802602846DCE634E900002AE80000C5
:10130000F1D8FFFF02681144137801601846704756
:10131000D160054979445161044979441162002141
:101320001161114600F0BAB8EDFFFFFFED000000BB
:10133000426842B1016811F8013B23B1521EC0E975
:101340000012184670470121C160881E704742682C
:101350005AB1C368016843B983688B4205D0491EFE
:10136000521CC0E90012002070474FF0FF30704758
:10137000004870477008002000487047500800205F
:1013800030B5B0F10A024FEA900E71F100034EEA57
:10139000817EB0EB0E0061EB91014FEA101E4EEA28
:1013A000017E10EB0E0041EB11114FEA102E4EEAB8
:1013B000016E10EB0E0041EB11214FEA104E4EEA88
:1013C000014E10EB0E0041EB1141401841F10001BC
:1013D0004FEAD00040EA41704FEAD10110EB80059E
:1013E0004FEA810444EA907444EB01046D1944EB24
:1013F0000404521BA3414FF0000348BF0A3200D53A
:1014000030BD401C41F1000130BD10B5044600F074
:1014100097FA0068005D00F0010010BD2DE9F04171
:101420001F46044603260168072A01F4006004DB16
:1014300008B116A505E016A503E008B115A500E062
:1014400015A521F010002060A069C01EA0610FB199
:10145000401EA0612046FEF72BFF4FB1D4E90121C9
:1014600038469047206A401C2062C01C206206E07B
:10147000206AFAE7D4E9012115F8010B9047761E9E
:10148000F8D22046FEF72AFFBDE8F0814E414E001B
:101490006E616E00494E4600696E66002DE9F34F9D
:1014A0004FF0000A0C4656468DB001200C9001F119
:1014B0000C000B9062690B980121904705002DD01C
:1014C000252D2CD0216A8847C0B162690B98012173
:1014D0009047216A88470028F7D16269411E0B981E
:1014E000904700E0761CA1690D988847216A8847DB
:1014F0000028F7D1E1690D988847DBE7A1690D98CD
:101500008847A842074601D1761CD3E7E1690D98C8
:1015100088477F1C02D1BAF1000F6FD06BE162697E
:101520000B9800273D46394690472A2804D1626926
:101530000B98012190470125DFF8D08262690B9852
:1015400001219047A0F130010A290AD24745E5DC84
:1015500007EB870100EB4107303FDFD445F0100572
:10156000ECE7E90601D46FF000476C280AD04C285C
:1015700014D0682815D06A280DD074281CD07A2879
:101580001AD01DE062690B98012190476C2802D0A7
:1015900045F0040514E045F002050DE045F0200596
:1015A0000AE062690B9801219047682802D045F053
:1015B000080505E045F4006562690B980121904734
:1015C000C4E9015765283DD019DC58287AD00CDCD5
:1015D000452837D004DC252826D041289ED131E08B
:1015E00046282FD0472899D12CE05B2877D0612856
:1015F00028D063287CD0642823D15AE0F6E06F28F5
:1016000048D008DC66281DD067281BD0692821D067
:101610006E2816D127E0702845D0732868D0752829
:1016200047D078280DD14DE0A1690D98884725282D
:1016300005463FF469AFE1690D9888476D1C3FF49A
:101640006AAFD8E00D9923466A466FF001000AF0B0
:1016500052FDC5E045F0400023464FF000026060B7
:10166000A80736D43EE0E8077FF447AF2068011DA5
:1016700021600068290501D506701BE7290701D5FF
:10168000068017E7A90703D5F117C0E9006111E744
:1016900006600FE745F0400023464FF00802606007
:1016A000A80716D41EE040F60E0125EA010060608E
:1016B00016E045F0400023464FF00A026060A8079C
:1016C00007D40FE045F040006060A80708D5234626
:1016D00010220D996FF00100AFF3008080E007E069
:1016E000102223460D996FF00100FEF74FFF77E0BF
:1016F0004FF0000963284F46C8464B46CB4602D000
:101700005B2806D038E0E80601D40120A06001275C
:1017100032E06269D4F80CB00B98012190475E2842
:1017200007D14FF0010949466269D4F80CB00B9813
:101730009047216939B900210A4603AB43F82120BB
:10174000491C0829FADBD8B3216949B308F101081B
:1017500062690B98012190475D28F4D1B9F1000F1F
:1017600009D0002003A951F82020D24341F82020BD
:10177000401C0828F7DB03AB2069002820794FEADA
:1017800040701ED05B462246CDF80080CDE901971F
:101790000D9900286FF0010020DAAFF300801FE000
:1017A000C11703AA00EBD1614B1121F01F0102EB1D
:1017B0008302411A13680120884003431360C7E77E
:1017C00019E00D99224600286FF00100009702DA17
:1017D000AFF3008004E0AFF3008001E0AFF30080DE
:1017E00000280ADA401C06D10C9820B14FF0FF30D7
:1017F0000FB0BDE8F08F5046FAE7E90701D10AF1D2
:10180000010A064400200C9054E60000CCCCCC0C1D
:101810002DE9F047814616468AB0334878440DC812
:101820008DE80D0030487844801C03AC0DC884E876
:101830000D0041F69B300844372190FBF1F290FBFC
:10184000F1F5A5F1800501FB12041B3C02D56442B1
:10185000012000E00020DFF890A080460027FA4435
:10186000AAF1BE0A0DE0E00709D03246684607EB50
:1018700047010AEB810100F0AEFD8DE8070064101E
:101880007F1C002CEFD1184F7F44AC3F18E0E807D5
:1018900014D007EB04100DF1180A90E80E008AE846
:1018A0000E00C068F04201D198190890324606A98E
:1018B00003A800F090FD03AB83E807006D10641CE3
:1018C000002DE4D132466946B8F1000F03A802D0DA
:1018D00000F059FD01E000F07EFDC9E90001C9F802
:1018E00008200AB0BDE8F087DCDF00000048704740
:1018F000500800207546FFF7F9FFAE46050069461F
:10190000534620F00700854618B020B5FEF784FC4A
:10191000BDE820404FF000064FF000074FF00008F0
:101920004FF0000B21F00701AC46ACE8C009ACE871
:10193000C009ACE8C009ACE8C0098D46704700009A
:1019400010B5FFF715FD001D10BD00BF1993000075
:101950002DE9FF4F1F464FF03C0987B04FF0004282
:10196000DDE9141001F10108DDF858A002EA405049
:101970000390002004908346054604460590B9690B
:10198000461E08988847AAF1010A0290BAF1000F92
:1019900037DD02982E2815D01021FFF752FA0028C3
:1019A0002ADB4FF0010B0499014316D0B9F1000F67
:1019B0000BDB4A46C11700F037FA05430C43A9F187
:1019C000040905E00120059007E008B145F0010594
:1019D00001200490059800B9361DB969089808F1EE
:1019E00001088847BBF1000FAAF1010A0290CDD08F
:1019F0000999C1F80080C9E70298702808D05028DA
:101A000006D0F96908988847BBF1000F14D04FE061
:101A1000002002900120BBF1000F049009D0B969A9
:101A2000089808F101088847AAF10109B9F1000FE7
:101A300007DCF969089888476FF001000BB0BDE832
:101A4000F08F2B2804D02D280CD14FF0FF300490BC
:101A5000B969089808F101088847A9F10109B9F1A5
:101A6000000FE6DD411CE4D00A21FFF7EAF9002867
:101A7000DFDB029908F1010801EB810100EB410075
:101A80000290B969089888470A21FFF7DAF9099A9C
:101A9000A9F10109B9F1000FC2F8008001DD0028A9
:101AA000E7DAF969089888470499029800FB01660B
:101AB00055EA040004D004F04041090002D006E0D9
:101AC000039898E0A40044EA9574AD00B61E04F0B3
:101AD0000041080002D16D196441761E159810F07E
:101AE000240F03D04FF00B095C4803E04FF02809A6
:101AF0006FF07D008246564507DAAAEB060189445D
:101B0000B9F1410F01DD4FF0410901200021A9F198
:101B1000010200F089F9024628400B4621400843A3
:101B200001D0012100E00021501E029143F1FF315C
:101B300028402140084301D0012000E00020029904
:101B4000834651EA0B014FD0002108464FF00000B8
:101B5000039900F4400039B100EB80004FF44001DC
:101B600000EBD07001EA60008015012802DD4FF023
:101B7000FF3000E013D0401C36D0029860B3BBF1B8
:101B8000000F0CD14A460120002100F04DF92840F9
:101B90002140084301D0012000E00020E0B10120F5
:101BA0004A46002100F040F9034640190A466141C7
:101BB0002D1A8C4111D3B9F1400F09DD159810F0A1
:101BC000240F02D0AAF1340603E0AAF1170600E0C0
:101BD000761C00254FF0004406E05B1E42F1FF3208
:101BE00020EA030521EA0204CAF10100B04206DA44
:101BF0001B49039808430190002000900EE0039ACF
:101C0000C4F3D321E80A0A43164940EA44500A4380
:101C10003146CDE90002684606F00EF9159810F03D
:101C2000240F0BD01598C00715D13868DDE90012D4
:101C3000031D3B600068C0E900120CE002A8694681
:101C400006F0AEF81598C00705D13868029A011D54
:101C50003960006802604046F0E6000002FCFFFFC9
:101C60000000F07F0000F03F2DE9FF4F92461D4637
:101C700085B04FF00041DDE9124BDDE914727F1EA3
:101C800001EA4B50414940F0FF4940EA0108002178
:101C900022F020004928049102D04E2828D04CE0A0
:101CA0003BA0012607C88DE80700A9690698641CB7
:101CB00088477F1E014606D41DF8060018B121F0A2
:101CC000200181420BD0E96906988847032E34D061
:101CD000082E32D06FF0010009B0BDE8F08F761CFD
:101CE000032E01D0082EE0D1601CCAF80000DCE70A
:101CF000A9690698641C88477F1E2AD420F020001A
:101D0000412826D1A9690698641C88477F1E20D4E3
:101D100020F020004E281CD1A9690698641C884731
:101D20007F1E48F4002849F48009CAF8004001D415
:101D3000282806D0E969069888475FEACB7012D058
:101D400022E0A9690698641C88477F1E01D40028F8
:101D500003DAE96906988847BCE72928F1D1641CB1
:101D6000CAF80040E9E71BF0240F07D0286804995F
:101D7000031D2B600068C0E9001805E02868021DFB
:101D80002A600068C0F800902046A5E70000F07FB8
:101D9000494E46494E495459000000000446AFF3ED
:101DA00000802046FEF724FA4FF0013C50F8042B47
:101DB00051F8043B9A4221D1A2EB0C03934313EA5E
:101DC000CC1317D150F8042B51F8043B9A4215D18B
:101DD000A2EB0C03934313EACC130BD150F8042B62
:101DE00051F8043B9A4209D1A2EB0C03934313EA46
:101DF000CC13DBD04FF00000704700BFD01A01BAFF
:101E0000B1FA81F101F0180122FA01F0CB40C1F1E1
:101E10002001DBB2C0B2C01A2CFA01F3D11A9143EF
:101E200011EAC311E6D17047B2F120030AD5C2F11D
:101E3000200301FA02F120FA03F300FA02F041EA6A
:101E40000301704700FA03F14FF0000070475FEAAA
:101E5000400C08BF91F0000F4FEA8C234FEAC122DB
:101E600043EA51514FEA1C5018BF00F5F0404FEAC9
:101E7000300018BF41F000415FEA6C5C00F029803F
:101E8000BCF1FF3F08BF40F080407047130C06BF15
:101E900012044FF0100C4FF0000C130E04BF12028E
:101EA0000CF1080C130F04BF12010CF1040C930F7A
:101EB00004BF92000CF1020CD30F04BF52000CF1CE
:101EC000010C11464FF00002A0F11F00A0EB0C0026
:101ED000704711F0004F08BF704731F000413FF4E8
:101EE000D5AF0B0C06BF09044FF0100C4FF0000CDF
:101EF0000B0E04BF09020CF1080C0B0F04BF090103
:101F00000CF1040C8B0F04BF89000CF1020CCB0FF9
:101F100004BF49000CF1010CCCF12003A0EB0C0034
:101F200022FA03F302FA0CF241EA030100F1010084
:101F3000704720F07F4C80EA030023F07F47ACEB32
:101F4000070303F57C5300F0004003F1FF032DE984
:101F500080494FEA154B09B44FEA144325EA0B4E6A
:101F600024EA03480FF2042606EB132749083E78BB
:101F70005FEA320203FB0667C7F5000707FB06F6B8
:101F80004FEA54374FEAD64606F1020607FB066CC5
:101F9000CCF1005C4FEA1C472CEA074C07FB06F427
:101FA0000CFB06F504EB15464FEA961634BF0020ED
:101FB0004FF000404FEAD13706FB07FC4FEA1C4CBC
:101FC0000CFB0BF7D21B03FB0CF761EB07010CFBBF
:101FD0000EF7B0EB074072EB17420CFB08F734BF6B
:101FE000A2EB0742B2EB074261EB17414FEA0C4408
:101FF0004FEA910706FB07FC4FEA1C4C0CFB0BF762
:10200000B0EBC74072EB573203FB0CF734BFA2EBC7
:10201000C742B2EBC74261EB57310CFB0EF7B0EB96
:10202000C70072EB57720CFB08F734BFA2EBC70274
:10203000B2EBC70261EB5771039F4FEA816141EA3E
:10204000921104EBCC044FEAD1374FEA826206FBCF
:1020500007FC42EA90124FEA80604FEA1C4C0CFBEE
:102060000BF7D21B03FB0CF761EB07010CFB0EF720
:10207000B0EB074072EB17420CFB08F734BFA2EB42
:102080000742B2EB074261EB17414FEA8C554FEA2A
:10209000910704EB9C2406FB07FC4FEA1C4C0CFB4D
:1020A0000BF7B0EBC74072EB573203FB0CF734BFB2
:1020B000A2EBC742B2EBC74261EB57310CFB0EF704
:1020C000B0EBC70072EB57720CFB08F734BFA2EB02
:1020D000C702B2EBC70261EB577115EB4C254FEA13
:1020E000816141EA92114FEA82624FEAD13742EAB6
:1020F000901206FB07FC44F100044FEA80604FEAAF
:102100001C4C0CFB0BF7D21B03FB0CF761EB07011C
:102110000CFB0EF7B0EB074072EB17420CFB08F715
:1021200034BFA2EB0742B2EB074261EB174115EB5C
:102130001C154FEA813141EA92414FEA823242EA6C
:1021400090424FEA80304FEA0C7644F1000448EAAE
:1021500003434EEA0B484FF0000EB2EB080C71EB54
:10216000030724BF624639464EEB0E0E4FF0000BBC
:102170000018524149414BEB0B0BB2EB080C71EBD1
:1021800003077BF1000B24BF624639464EEB0E0E6F
:102190004FF0000B0018524149414BEB0B0BB2EBD7
:1021A000080C71EB03077BF1000B24BF6246394634
:1021B0004EEB0E0E51EA020718BF46F0010616EB71
:1021C0000E7655F1000254F1000103D5BDE88901F6
:1021D000BDE80088BDE88901BDE80048B619524154
:1021E00041EB0101A3F10103704780807F7E7D7C7C
:1021F0007B7A7978777676757473727171706F6E99
:102200006E6D6C6C6B6A6A69686867666665646443
:10221000636362616160605F5F5E5E5D5D5C5C5BCD
:102220005B5A5A595958585757565655555554543C
:10223000535352525251515050504F4F4F4E4E4D9A
:102240004D4D4C4C4C4B4B4B4A4A4A4949494848E6
:102250004847474747464646454545444444444326
:1022600043434342424242414141000046EA06465E
:10227000A3F570534FEA164646EA42564FEAD22279
:1022800042EA415210B54FEAD121A3F1010300F017
:1022900017F820F0004000F1010C00F0004701EBBE
:1022A00000501146BCF5006F40EA070000D210BD97
:1022B00002484FF0000140EA070010BD0000F07F27
:1022C000002B26D4770021D01CB54FEA370703B482
:1022D0004FF010004FF010014FF000000FBCBDE8B0
:1022E00010400BF1010BBBF1010F08BF5FEA1707AC
:1022F00022BF12F1010211F101014FF0004143F13F
:10230000000300F0004043EA00007047F9D357088B
:10231000DAE746EA064613F1400F4FEA16461FDD9C
:1023200013F1200FDFBF16430A46002120335B4222
:10233000C8D0C3F1200746EA064602FA07F74FEA7B
:10234000164646EA0706C3F1200722FA03F201FA0D
:1023500007F721FA03F14FF0000342EA0702B1E761
:1023600046EA020646EA06464FEA164646EA0106ED
:10237000BCBF46EA0646360C4FF000034FF00002A1
:102380004FF000019EE72DE9C048934630B491E834
:10239000380007C831EA400C48BF34EA430C03D583
:1023A000FFF7C7FDFFF78CFFF0BCBDE800882DE903
:1023B000C048934630B491E8380007C831EA400C71
:1023C00048BF34EA430C03D5FFF7B3FDFFF74EFFD8
:1023D000F0BCBDE800882DE9C048934630B491E8D0
:1023E000380007C810F0804F08BF13F0804F03D1AA
:1023F00000F019F8FFF764FFF0BCBDE800882DE994
:10240000C048934630B491E8380007C810F0804FB8
:1024100008BF13F0804F03D100F005F8FFF726FF47
:10242000F0BCBDE8008820F07F4780EA030023F07D
:102430007F4C07EB0C03A3F57C5300F00040A3F1A5
:10244000FE0392F0000F00F0B38095F0000F00F053
:1024500077802DE901494FEA11404FEA144621EAFD
:10246000004800FB06FC24EA064708FB06F607FBCB
:1024700008F800FB07F718EB06484CEB164C4FEA40
:10248000124B18EB07484FEA15464CEB174022EA6F
:102490000B4E0BFB06FC25EA06470EFB06F607FB78
:1024A0000EFE0BFB07F71EEB064E4CEB164C4FF0E7
:1024B00000061EEB074E4CEB174B18EB0B0840F1D8
:1024C000000018EB0E0B58EB000840F100008F1ACB
:1024D0004FF000013CBFC943661B14BFB5EB040CB1
:1024E00000213CBFC943F61B4FEA17444EEA8E0E4B
:1024F00027EA04454FEA1C4704FB07622CEA074C15
:1025000005FB07F70CFB05F604FB0CFC16EB074676
:1025100042EB174216EB0C4642EB1C421BEB060645
:1025200058EB0202414146EA9E0601D5BDE8018909
:10253000B619524141EB0101A3F10103BDE8018944
:102540004FEA14454FEA114724EA054621EA074CB1
:1025500005FB07F406FB07F70CFB06F105FB0CFC7B
:1025600011EB074144EB17444FEA124711EB0C41C2
:1025700044EB1C4422EA074C05FB07F206FB07F775
:102580000CFB06F605FB0CFC16EB074642EB17426C
:1025900016EB0C4642EB1C456A1854F1000148BF8B
:1025A0007047B619524141EB0101A3F10103704795
:1025B00095F0000F37D04FEA11424FEA144721EA55
:1025C000024624EA074C02FB07F106FB07F70CFB67
:1025D00006F402FB0CFC14EB074441EB17414FEAF5
:1025E000154714EB0C4441EB1C4125EA074C02FB58
:1025F00007F506FB07F70CFB06F602FB0CFC16EBD7
:10260000074645EB174516EB0C4645EB1C421219E5
:1026100051F1000148BF7047B619524141EB010129
:10262000A3F1010370474FEA14454FEA114724EA2A
:10263000054621EA074C05FB07F106FB07F70CFBF3
:1026400006F24FF0000605FB0CFC12EB074241EBD3
:10265000174112EB0C4251EB1C4148BF70479218D6
:1026600041EB0101A3F10103704700BFFEE770B524
:1026700000254FF4803404E0802002F0A9FB00B173
:1026800003E02000A4F10104F6D100BF0CB903203F
:1026900070BD40F2FF5002F055FB2846F8E70000FD
:1026A00070B5044605E01548456B05F0450000B1DE
:1026B00000E0F8E700BF042002F08AFB20B104200C
:1026C00002F040FB032070BD012002F081FB20B12D
:1026D000012002F037FB0120F5E708480069A0421D
:1026E00001D01020EFE740F2FF500449886308460C
:1026F000406908210840C0B2E5E7000000800140C1
:1027000070B500264FF4803505E01148446B04F0A5
:10271000450000B103E02800A5F10105F5D100BF97
:1027200015B104F0040028B10326042002F00AFBCE
:10273000304670BD012002F04BFB18B1012601208C
:1027400002F000FB40F2FF5002F0FCFA3046F0E7E6
:102750000080014010B505E00B48446B04F04500D3
:1027600000B100E0F8E700BF042002F031FB20B127
:10277000042002F0E7FA032010BD40F2FF5002F0FF
:10278000E1FA0020F8E70000008001402DE9F04167
:1027900005460E464FF0000805E01F48476B07F05E
:1027A000450000B100E0F8E700BF042002F010FB94
:1027B00028B1042002F0C6FA0320BDE8F081012010
:1027C00002F006FB20B1012002F0BCFA0120F4E780
:1027D00011480069A84201D01020EEE740F2FF50F6
:1027E00002F0B0FA0C48446904F4604018B9200CB7
:1027F00030804046E1E704F4005008B11320DCE7E4
:1028000004F4804008B11020D7E704F4004008B178
:102810000F20D2E74046D0E70080014070B5002687
:102820004FF4803505E00F48446B04F0450000B1DB
:1028300003E02800A5F10105F5D100BF15B104F0B2
:10284000040028B10326042002F07CFA304670BD53
:1028500004F0400018B10026402002F073FA304620
:10286000F5E700000080014021B1026842F001025A
:10287000026004E002684FF6FE731A40026070477F
:1028800001684FF6FE721140016000210160416055
:102890008160C1604B49884208D14A49083949687A
:1028A00041F00F01474A083A51608AE04549143126
:1028B000884208D143490839496841F0F001414A4A
:1028C000083A51607DE03F492831884208D13D49AE
:1028D0000839496841F470613A4A083A516070E039
:1028E00038493C31884208D136490839496841F4B1
:1028F0007041344A083A516063E0324950318842AD
:1029000008D130490839496841F470212D4A083A04
:10291000516056E02B496431884208D12949083971
:10292000496841F47001274A083A516049E0254955
:102930007831884208D123490839496841F07061EB
:10294000204A083A51603CE01F49884206D1011FE5
:10295000096841F00F01021F116032E01A49143179
:10296000884208D11849091F096841F0F001164A48
:10297000121F116025E014492831884208D11249FC
:10298000091F096841F470610F4A121F116018E0B5
:102990000D493C31884208D10B49091F096841F4AF
:1029A0007041094A121F11600BE0074950318842FB
:1029B00007D10549091F096841F47021024A121F15
:1029C00011607047080002400804024010B5002260
:1029D000026847F6F0739A430C6A8B6823430C69CC
:1029E00023434C6923438C692343CC6923434C6ABA
:1029F00023438C6A23431A430260CB6843600B680D
:102A000083604B68C36010BD704700002DE9F04F34
:102A100087B0B048B04908600020B0490860012480
:102A2000ABE0621EAE4B53F822101A4652F8240057
:102A300009F0B2F813D1621EAA4B53F822101A46BD
:102A400052F8240009F044FA04D8A248A24941F8F7
:102A500024005BE0A448A04941F8240056E0621E2F
:102A60009F4B53F822101A4652F8240009F030FA0E
:102A700023D2621E9A4B53F822101A4652F82400B1
:102A800009F062FA621E974B059053F822101A461D
:102A900052F8240009F058FA0490059908F0BAFF9A
:102AA000834608F01DFF814605F0DAF9064608F076
:102AB000EFF8894941F8240028E0621E884B53F85A
:102AC00022101A4652F8240009F03EFA621E854B85
:102AD000039053F822101A4652F8240009F034FAF1
:102AE0000290039908F096FF834608F0F9FECDE9BD
:102AF000040105F0B5F981467C4A7D4B08F0FAF8EF
:102B0000064608F0C5F8744941F82400621E744B6B
:102B100053F822101A4652F8240009F015FA834699
:102B200008F0DEFE064600224FF0804307F02EF844
:102B3000621E6C4BCDE9020153F822101A4652F87E
:102B4000240009F001FA834608F0CAFE0646002276
:102B50004FF0804307F01AF8CDE90001DDE90223C8
:102B600008F0C8F8CDE9040107F0C3FD814608F07C
:102B70008FF85A4941F82400641C5E48008884425A
:102B8000FFF64FAF012444E0534A52F82410621E6E
:102B9000514B53F8220009F0D7F90546284608F0B2
:102BA0009FFE0646514A524B08F088FC0CD228463C
:102BB00008F096FE06464D4A4F4B08F0A7FD8146A9
:102BC00008F066F8054614E0284608F089FE064637
:102BD000464A4A4B08F038FB0BD8284608F080FEDE
:102BE0008146424A444B08F085F8064608F050F802
:102BF00005463A4850F8248001F0EEFC29460120B1
:102C000001F0EEFC01F0E8FC4146002001F0E8FC98
:102C1000641C384800888442B6DB01F0DDFC38498A
:102C2000012001F0DDFC33480088441E46E02A4ABA
:102C300052F82410621E284B53F8220009F084F940
:102C40000546284608F04CFE0646284A284B08F060
:102C500035FC0CD2284608F043FE8146234A264B19
:102C600008F054FD064608F013F8054614E028461F
:102C700008F036FE06461D4A204B08F0E5FA0BD850
:102C8000284608F02DFE8146184A1B4B08F032F802
:102C9000064607F0FDFF0546104850F8248001F075
:102CA0009BFC4146002001F09BFC01F095FC85F067
:102CB00000463146012001F093FC641E002CB6DC76
:102CC00001F08AFC0E49012001F08AFC07B0BDE842
:102CD000F08F0000DA0FC93F60070020D8070020FE
:102CE000F805002070060020DA0FC9BF4AD8124D3F
:102CF000FB210940E8000020FB211940FB2109C00D
:102D0000DA0F494051B18200A2F1C042126842F08C
:102D100001038200A2F1C042136009E08200A2F127
:102D2000C0421268034B1A408300A3F1C0431A60EB
:102D300070470000FEFF0F00D0E901121143C26886
:102D40001143026911434269114382691143C26907
:102D50001143026A1143426A1143826A1143C26AF3
:102D60001143026B114302689200A2F1C04211604C
:102D7000816808290BD101688900A1F1C041096867
:102D800041F0400201688900A1F1C0410A60416B35
:102D90000968426B526841EA0211426B926841EA4B
:102DA0000221426B928941EA0241426B128A41EA56
:102DB0000251426B127D41EA0261426B92691143FA
:102DC0000268521C9200A2F1C0421160C16AB1F5C2
:102DD000804F1BD1816B0968826B526841EA0211F6
:102DE000826B926841EA0221826B128A41EA0251A7
:102DF000826B127D41EA0261826B92691143026823
:102E00009200A2F1C042C2F8041107E06FF07042D4
:102E100001688900A1F1C041C1F804217047000098
:102E20002DE9FC4107460D460026002400200090B5
:102E3000019008205B4908601020486040208860AD
:102E40000020C8604FF480600861084601F0F6FF7A
:102E50001020FFF725FC044614B12046BDE8FC8194
:102E60005148008800044F490860372048604020DE
:102E700088600020C8604FF480600861084601F057
:102E8000DDFF3720FFF70CFC04460CB12046E5E7D8
:102E90004FF0FF30454908600820486030208860C6
:102EA0000220C8600020086101204861084601F046
:102EB00065FF00203B49086033204860402088605F
:102EC0000020C8604FF480600861084601F0B6FF3A
:102ED0003320FFF7E5FB04460CB12046BEE70CE0CB
:102EE0004FF4001001F074FF38B101F0A1FF4DF86C
:102EF0002600761C022E00D306E02D48406B40F2DF
:102F00002A6108400028EBD000BF082001F060FFD4
:102F100020B1082001F016FF04209FE7022001F0F5
:102F200057FF20B1022001F00DFF022096E720207C
:102F300001F04EFF20B1202001F004FF06208DE7B4
:102F40004FF4007001F044FF28B14FF4007001F01D
:102F5000F9FE072082E740F2FF5001F0F3FE0098EF
:102F60000006009901F47F4140EA0120009901F434
:102F70007F0140EA1120009940EA116068600198E1
:102F80000006019901F47F4140EA0120019901F412
:102F90007F0140EA1120019940EA11602860204633
:102FA0005CE70000500100206C000020640100205C
:102FB0000080014010B504462948844208D101210F
:102FC000042001F0BBFD0021042001F0B7FD46E024
:102FD0002448844208D10121082001F0AFFD0021DE
:102FE000082001F0ABFD3AE01F48844208D10121DE
:102FF000102001F0A3FD0021102001F09FFD2EE024
:103000001A48844208D10121202001F097FD0021B7
:10301000202001F093FD22E01548844208D10121CF
:10302000402001F08BFD0021402001F087FD16E0DB
:103030001048844208D10121802001F07FFD002149
:10304000802001F07BFD0AE00B48844207D101217A
:10305000801501F073FD0021A01501F06FFD10BD7A
:1030600000080140000C0140001001400014014024
:1030700000180140001C0140002001402DE9F041F2
:10308000024600250026002000230024002791F896
:1030900003C00CF00F0591F803C00CF0100CBCF14C
:1030A000000F03D091F802C04CEA050591F800C06A
:1030B000BCF1000F31D0146800202BE04FF0010C60
:1030C0000CFA00F3B1F800C00CEA03069E4220D1CE
:1030D00083004FF00F0C0CFA03F7BC4305FA03FC16
:1030E0004CEA040491F803C0BCF1280F06D14FF05C
:1030F000010C0CFA00FCC2F814C00AE091F803C0FD
:10310000BCF1480F05D14FF0010C0CFA00FCC2F8DD
:1031100010C0401C0828D1D31460B1F800C0BCF125
:10312000FF0F34DD546800202EE000F1080C4FF052
:10313000010808FA0CF3B1F800C00CEA03069E423D
:1031400021D183004FF00F0C0CFA03F7BC4305FAB2
:1031500003FC4CEA040491F803C0BCF1280F05D12C
:1031600000F1080C08FA0CF8C2F8148091F803C0BA
:10317000BCF1480F07D100F1080C4FF0010808FA24
:103180000CF8C2F81080401C0828CED35460BDE86B
:10319000F0814FF6FF710180022181700421C1701E
:1031A000704700002DE9F84306460F460025A84663
:1031B00000241AE0305D0A2815D1002030550D4852
:1031C00000EB85000C4901EB85030C4901EB8502FE
:1031D000009006EB08000AA1FDF7BAF9681C85B259
:1031E000601C1FFA80F8601C84B2BC42E2D3E8B2D3
:1031F000BDE8F883E806002070060020F8050020EE
:1032000025662C25662C25640000000000BFFEE723
:1032100072B6704762B670471CB504460020019034
:103220000090214800880004204908600D20486073
:10323000402088600020C8604FF480600861084624
:1032400001F0FCFD1A48406B009002E01848406B0A
:103250000090009800F045000028F7D0012001F010
:10326000B7FD20B1012001F06DFD01201CBD04203F
:1032700001F0AEFD20B1042001F064FD0320F5E76C
:103280000B4800690D2801D01020EFE740F2FF50F5
:1032900001F058FD0648406901900198C0F34320B1
:1032A00020700020E2E700006C00002050010020A8
:1032B0000080014008B50121442001F02FFC1C20B2
:1032C000ADF8000048208DF8030069460648FFF776
:1032D000D5FE0120ADF8000028208DF803006946D6
:1032E0000248FFF7CBFE08BD00180140000801406E
:1032F00070B5064637480068012121EA1014002500
:1033000010E0012005F02AF932480068012121EA85
:103310001010A04204D0112005F020F9002070BD4B
:10332000681CC5B2052DECDB2B48047029480068E9
:10333000012121EAD004002510E0012005F00EF95A
:1033400024480068012121EAD000A04204D00C20CA
:1033500005F004F90020E2E7681CC5B2052DECDB9E
:103360001D4844701B480068012121EA9004002593
:1033700010E0012005F0F2F816480068012121EA6A
:103380009000A04204D0072005F0E8F80020C6E72E
:10339000681CC5B2052DECDB0F4884700F4800682F
:1033A00000F0010400250FE0012005F0D7F80B48DC
:1033B000006800F00100A04204D0022005F0CEF821
:1033C0000020ACE7681CC5B2052DEDDB0248C470D7
:1033D0000120A4E70818014020000020080801404F
:1033E00070B50446002609480588408845430021F9
:1033F000084600F0CBFB00F0BFFC00BF02E0044831
:103400000480761CAE42FAD370BD00002801002073
:103410000008006C10B504468CB900201149887171
:10342000F02008804FF4A07048802C2008812A20CA
:1034300048812B208881002000F02EFB10E0012025
:10344000084988714FF4A0700880F02048802C2033
:1034500008812A2048812B208881052000F01CFB50
:1034600010BD0000280100202DE9FF4F84B08146E7
:103470008A460020039002900698A0EB0905079861
:10348000A0EB0A06CDF80490CDF800A0002D01DDD8
:10349000012705E00DB9002702E04FF0FF376D422C
:1034A000002E02DD4FF0010806E016B94FF00008CB
:1034B00002E04FF0FF387642B54201DD2C4600E0D5
:1034C00034464FF0000B21E0009A91B2019A90B27D
:1034D00000F022F8039828440390029830440290A8
:1034E0000398A04205DD0398001B0390019838441F
:1034F00001900298A04205DD0298001B02900098FE
:10350000404400900BF101001FFA80FB601C8345D2
:10351000DADD08B0BDE8F08F30B504460D46294627
:10352000204600F033FB00F027FC024800880249E7
:10353000088030BD1C0000200008006CF0B5044677
:103540000D4616461F462B46324629462046FFF7B3
:103550008BFF3B46224629462046FFF785FF3B4628
:10356000324639462046FFF77FFF3B463246294622
:103570003046FFF779FFF0BD2DE9F04306460F46D0
:103580009046002445460320A0EB48093CE07A1B06
:1035900091B2321990B2FFF7BFFF3A1B91B2721984
:1035A00090B2FFF7B9FF3A1991B2721990B2FFF7D2
:1035B000B3FF7A1991B2321990B2FFF7ADFF7A19C1
:1035C00091B2321B90B2FFF7A7FF3A1991B2721B6A
:1035D00090B2FFF7A1FF7A1B91B2321B90B2FFF7B6
:1035E0009BFF3A1B91B2721B90B2FFF795FF641CD0
:1035F000B9F1000F03DAA000801D814404E0601BD4
:1036000080000A3081446D1EAC42C0DDBDE8F0830D
:1036100010B503460C460D49488900F0A7FB181267
:1036200000F09EFBD8B200F09BFB0849888900F0AF
:103630009DFB201200F094FBE0B200F091FB0348E8
:10364000008903490880881C028010BD28010020E1
:10365000FE07006C2DE9F04F05460E4617469846CA
:10366000DDF824A04FF0000B781B401C1FFA80FBF4
:10367000344613E02146284600F088FA00F07CFB2F
:103680004FF0000906E00748A0F800A009F101008A
:103690001FFA80F9D945F6DB601C84B24445E9DDA8
:1036A000BDE8F08F0008006C00B59FB00121080252
:1036B00001F004FA01214FF4B47001F02FFA012057
:1036C000ADF8780010208DF87B0003208DF87A008B
:1036D0001EA9E048FFF7D2FC4CF23370ADF8780039
:1036E00018208DF87B0003208DF87A001EA9DA4897
:1036F000FFF7C4FC4FF68070ADF8780018208DF805
:103700007B0003208DF87A001EA9D448FFF7B6FC91
:1037100041F20100ADF8780018208DF87B000320FD
:103720008DF87A001EA9CE48FFF7A8FC012008906A
:10373000002009900F200A9000200B900C900D9013
:103740000E900190029003200390002004900590B9
:103750000690079006200F900020109011901020E6
:1037600012900020139015901490169017904FF41B
:1037700080501890002019904FF480401A9000203B
:103780001B9008A81C9001A81D900FA8FFF7D4FA61
:1037900001210620FFF7B6FA322004F0DFFE0020F8
:1037A00000F06EF9AF49888008468088FF280ADB60
:1037B000084680884FF6FF71884204D0A948808867
:1037C000B0F5134F1DD1D32000F0D0FA00F04EF920
:1037D000A449888000F04AF9A249888000F046F99F
:1037E000A0498880084680884FF6FF7101EA0020D2
:1037F0009C49888000F03AF99A4989880843994998
:1038000088809848808849F2413188427ED1CF2013
:1038100000F0ACFA002000F0A3FAC12000F0A0FAFA
:10382000302000F09DFAED2000F0A0FA642000F0B6
:1038300097FA032000F094FA122000F091FA812008
:1038400000F08EFAE82000F091FA852000F088FA66
:10385000102000F085FA7A2000F082FACB2000F0E8
:1038600085FA392000F07CFA2C2000F079FA00204B
:1038700000F076FA342000F073FA022000F070FABB
:10388000F72000F073FA202000F06AFAEA2000F036
:103890006DFA002000F064FA002000F061FAC02008
:1038A00000F064FA1B2000F05BFAC12000F05EFA21
:1038B000012000F055FAC52000F058FA302000F041
:1038C0004FFA302000F04CFAC72000F04FFAB72032
:1038D00000F046FA362000F049FA482000F040FA9D
:1038E0003A2000F043FA552000F03AFAB12000F0F7
:1038F0003DFA002000F034FA1A2000F031FAB62028
:1039000000F034FA0A2000F02BFA00E095E0A22043
:1039100000F026FAF22000F029FA002000F020FA48
:10392000262000F023FA012000F01AFAE02000F02F
:103930001DFA0F2000F014FA2A2000F011FA2820B6
:1039400000F00EFA082000F00BFA0E2000F008FA42
:10395000082000F005FA542000F002FAA92000F037
:10396000FFF9432000F0FCF90A2000F0F9F90F20DC
:1039700000F0F6F9002000F0F3F9002000F0F0F973
:10398000002000F0EDF9002000F0EAF9E12000F05D
:10399000EDF9002000F0E4F9152000F0E1F917201E
:1039A00000F0DEF9072000F0DBF9112000F0D8F973
:1039B000062000F0D5F92B2000F0D2F9562000F0B7
:1039C000CFF93C2000F0CCF9052000F0C9F9102017
:1039D00000F0C6F90F2000F0C3F93F2000F0C0F955
:1039E0003F2000F0BDF90F2000F0BAF92B2000F0C5
:1039F000BDF9002000F0B4F9002000F0B1F9012079
:103A000000F0AEF93F2000F0ABF92A2000F0AEF94B
:103A1000002000F0A5F9002000F0A2F9002000F03D
:103A20009FF9EF2000F09CF9112000F09FF9782019
:103A300004F094FD292000F099F90020FFF7EAFC3A
:103A40000120094908604FF6FF70FFF7C9FC1FB05D
:103A500000BD0000000C01400014014000180140AE
:103A600000200140280100208081214208B5034840
:103A700000880090BDF8000008BD00000008006C40
:103A800010B50446204600F071F9052004F08CFDC5
:103A9000FFF7ECFF10BD000070B5054600230026BF
:103AA000082D1CD2DFE805F00406090C0F121518CA
:103AB00000BF14E043F0800311E043F040030EE048
:103AC00043F0C0030BE043F0200308E043F0600341
:103AD00005E043F0A00302E043F0E00300BF00BFB5
:103AE000362643F008031946304600F04FF903F03C
:103AF000200068B12448008823494988884214DAA4
:103B000021480488408820490880084644800CE009
:103B10001D4800881C494988884206DD1A480488E7
:103B2000408819490880084644801749488900F0B0
:103B30001DF9002000F014F9002000F011F91249DD
:103B40000988491EC1F30F2000F00AF90E490978CF
:103B5000491EC8B200F004F90B49888900F006F943
:103B6000002000F0FDF8002000F0FAF8064949882E
:103B7000491EC1F30F2000F0F3F803498978491E6C
:103B8000C8B200F0EDF870BD2801002000B5024673
:103B90000B460A49488900F0E9F8101200F0E0F8F5
:103BA000D0B200F0DDF80549888900F0DFF818127E
:103BB00000F0D6F8D8B200F0D3F800BD28010020FC
:103BC0002DE9FC4F81460E4615461C4601962046BF
:103BD000E31704EB5373DB1021464FEAE47C04EB5C
:103BE0005C7C4FEAEC0CA4EBCC0CBCF1000F02D0D7
:103BF0004FF0010C01E04FF0000C6344224604EB4F
:103C0000D27C4FEA6C0C03FB0CF3DBB20093A5F102
:103C10002000C5B20C2C05D105EB45002F4901EB66
:103C2000800715E0102C03D12D4800EB05170FE09D
:103C3000182C05D105EBC5002A4901EB800707E0E8
:103C4000202C03D1284800EB851701E0BDE8FC8F4C
:103C50004FF000083CE017F808A04FF0000B2FE0F1
:103C60000AF0800030B12148028831464846FFF70B
:103C7000CFFC07E00B9828B91D480288314648461A
:103C8000FFF7C6FC4FEA4A604FEA106A701C86B222
:103C900018484088B04200DCD8E70198301AA042AA
:103CA0000AD1019E09F101001FFA80F9114800882C
:103CB000484500DCCAE706E00BF1010000F0FF0B0D
:103CC000BBF1080FCCDB00BF08F1010000F0FF08DA
:103CD00000988045BFDB00BFB8E7000032C1000894
:103CE000A6C5000896CB0008F2D800081C000020EA
:103CF0001E000020280100202DE9F84704460D464B
:103D000090469946DDE9096704F0FF0A08EB0400D4
:103D10001FFA80F809EB05001FFA80F916E0444508
:103D200002DB5446A81985B24D4500DB14E00020A3
:103D300000903A78334629462046FFF741FF304647
:103D400006EBD07104EB61018CB27F1C38787E28C1
:103D500002DC38782028E2DA00BFBDE8F8870000EE
:103D600001490880704700000008006C0149088084
:103D700070470000FE07006C024800890249088075
:103D80007047000028010020FE07006C024A1080E6
:103D9000921C118070470000FE07006C30B5ADF238
:103DA000644D2FA207CA0DF58B6307C300240025BD
:103DB0000AE01E2004F0D2FB601CC4B21E2C03DDFE
:103DC00000242AA003F042FA01F054FA0028F0D1AE
:103DD00017E01E2004F0C2FB601CC4B20A2094FB52
:103DE000F0F100FB114030B92448006880F0010078
:103DF0002349C1F894011E2C03DD002421A003F007
:103E000025FA012223A18AA804F0B2FE0028E0D1FD
:103E10002149088000BF20480088401C80B21E490C
:103E2000088002461DA10DF58B60FCF72DFA0122DA
:103E30000DF58B61684604F0C9FE054605B106E044
:103E4000684604F084FE144800880A28E3DD00BFB9
:103E500011480088401E104908800DF2644D30BDA5
:103E60004D617030312E6D61700000005344206947
:103E70006E6974206661696C656421009401234257
:103E8000000023425344206C6F6164206661696CBA
:103E900065642100303A0000EA0000204D61702581
:103EA0003032642E6D61700000BFFEE710B5012155
:103EB000014802F00CFE10BD0004004000B589B0BE
:103EC0000121022000F00AFE08A8FFF762F9C020D5
:103ED000ADF8200004208DF8230003208DF8220087
:103EE00008A92148FFF7CAF8204802F00BFE00207D
:103EF000ADF814001E480088ADF818000020ADF899
:103F00001A00ADF8160005A9184803F029F9002396
:103F10001A460321154802F0E9FE02A802F06EFFDE
:103F20000620ADF8100002A9104802F011FF002091
:103F30000E4924310880012211460C4802F067FF27
:103F40001D208DF8040000208DF8050003208DF859
:103F5000060001208DF8070001A800F0C3FB002037
:103F60000449086009B000BD000801400004004099
:103F7000880000209000002010B504460E4800681C
:103F8000204400280BDB0C480088204481B20B48F9
:103F900003F0A5F80021094803F0A3F80BE0002185
:103FA000064803F09CF8044800884042001B81B298
:103FB000024803F096F810BD8C0000200034014048
:103FC00010B50121014802F082FD10BD000800403B
:103FD00000B589B00121042000F080FD08A8FFF79A
:103FE000D8F8C020ADF8200004208DF8230003206D
:103FF0008DF8220008A92148FFF740F8204802F078
:1040000081FD0020ADF814001E480088ADF81800AE
:104010000020ADF81A00ADF8160005A9184803F005
:104020009FF800231A460321154802F05FFE02A8FC
:1040300002F0E4FE0620ADF8100002A9104802F0DC
:1040400087FE00200E4924310880012211460C48C9
:1040500002F0DDFE1E208DF8040000208DF8050022
:1040600003208DF8060001208DF8070001A800F05C
:1040700039FB00200449086009B000BD000C014074
:104080000008004088000020B000002010B5044661
:104090000E480068204400280BDB0C4800882044B0
:1040A00081B20B4803F01BF80021094803F01BF80C
:1040B0000BE00021064803F012F804480088404253
:1040C000001B81B2024803F00EF810BDAC000020C6
:1040D000002C01402DE9F04F87B0054600240A2648
:1040E0004A4FDFF82C81DFF82C914B4800684B4990
:1040F00008604B4800684B4908604B4800884B49B2
:1041000009684B4A128801FB02004349086049488C
:10411000008849490968464A128801FB0200404963
:10412000086046480068464908603DB93C48006858
:1041300039490968401A4149086007E03848006871
:10414000404235490968401A3C490860304607F04A
:1041500093FD834639490968394A1268881A07F07D
:104160008BFD4946039007F0E7FD8246594607F06C
:1041700051FC0590304607F07FFD304903900968F7
:104180002F4A1268881807F077FD4146019007F022
:10419000D3FD0290039907F0CFFD824627480068BF
:1041A00007F06AFD3946039007F0C6FD8346514685
:1041B00007F0C2FB0490059907F0BEFB069007F0DC
:1041C0001FFD04461F4800682044B0F57A7F04DBD9
:1041D0001C48006840F2E7310C1A1A480068204475
:1041E00010F57A7F03DC1748006817490C1A20463F
:1041F000FFF7C2FE1DB96042FFF748FF02E020460C
:10420000FFF744FF07B0BDE8F08F000000007041E9
:104210000AD7233C00004843940000209800002067
:10422000B4000020B80000202404004090000020CA
:104230008800002024080040B0000020CC000020AE
:10424000D00000208C00002019FCFFFF10B50020DA
:104250000A4908600A4908600A4908600A49086072
:10426000472140F2E73000F0B3F8FFF727FEFFF7F1
:10427000AFFEFFF71BFEFFF7A3FE10BDCC00002032
:10428000D00000208C000020AC0000202DE9F04F71
:1042900087B0054600240A264FF07E57A046DFF877
:1042A00008914248006842490860424800884249F3
:1042B0000968424A128801FB020041490968081A4C
:1042C0003A490860304607F0D7FC83463749096809
:1042D000374A1268881A07F0CFFC4946039007F066
:1042E0002BFD8246594607F095FB0590304607F0B6
:1042F000C3FC2E49039009682D4A1268881807F0FC
:10430000BBFC4146019007F017FD0290039907F0AE
:1043100013FD82462548006807F0AEFC394603903D
:1043200007F00AFD8346514607F006FB0490059905
:1043300007F002FB069007F063FC0446142C00DD36
:10434000142414F1140F01DA6FF013041D480068EF
:104350002044B0F5487F03DD1A480068C0F5487472
:1043600018480068204410F5487F03DA15480068B3
:1043700015490C1A55B913480068204411490860C2
:104380001248006820441149086009E00D4800689F
:1043900020440C4908600D480068001B0B49086068
:1043A00007B0BDE8F08F000000009644D800002060
:1043B000DC00002024040040900000208800002041
:1043C000D40000208C000020E0FCFFFFAC000020A7
:1043D00030B589B005460C465648FEF7EBFD564809
:1043E000FEF7E8FD012142F2100000F097FBC0202B
:1043F000ADF8200018208DF8230003208DF822004E
:1044000008A94C48FEF73AFE012140F6040000F0EE
:1044100085FB4FF41060ADF8200008A94648FEF770
:104420002DFE464802F06EFB454802F06BFBADF8EE
:104430001850ADF814400020ADF81A00ADF8160081
:104440008DF81C0005A93D4802F08AFE05A93C48EC
:1044500002F086FE6020ADF804000120ADF80A00ED
:104460000020ADF80C00ADF80E000120ADF80600FC
:104470000020ADF80800ADF81000ADF8120001A959
:104480002E4802F02BFD08212C4802F073FD01A9F3
:104490002A4802F079FD0821284802F0C7FD01A949
:1044A000274802F01BFD0821254802F063FD01A901
:1044B000234802F0C9FD0821214802F003FE012132
:1044C0001E4802F0F5FA01211C4802F00CFB012104
:1044D0001A4802F0FCFA0121194802F0E9FA012118
:1044E000174802F000FB0121154802F0F0FA002104
:1044F000124802F0F4FD0021104802F0F2FD002104
:104500000F4802F0ECFD00210D4802F0ECFD842183
:10451000202000F047FA8421212000F043FA842172
:10452000222000F03FFA8421232000F03BFA09B05A
:1045300030BD00000010014000080140003401407F
:10454000002C014010B51848006818490860184848
:10455000006818490968401A13490860164800683D
:10456000164908601048006810490968401A124945
:10457000086013480068134908601348006813492D
:104580000968401A0E49086011480068114908601E
:104590000B4800680B490968401A0D4908600A2059
:1045A00003F0DCFF10BD00009C000020A0000020F4
:1045B0009400002098000020A4000020A800002003
:1045C000BC000020C0000020B4000020B800002083
:1045D000C4000020C800002010B5FFF737FE10BD52
:1045E0002DE9F04F87B0044689464FF0000A8CB998
:1045F0003049484607F0A0FB834607F071F90746AB
:104600002D4A2E4B06F032FC054606F0C3FD2C4920
:10461000086021E02749484607F08EFB29490190B0
:1046200007F0F8F9834607F05BF9274A274BCDE9F5
:10463000020106F045FE0546254A264B06F016FC0B
:1046400000224FF08043CDE9040106F00FFC07463D
:1046500006F0A0FD1A490860194800681E49086064
:104660001BE02046FFF712FE2046FFF733FDFFF761
:1046700069FF1A48006812490968401A02280ADCD2
:10468000164800680E490968401A10F1020F02DB53
:104690000AF1010A01E04FF0000ABAF1140FE0DB61
:1046A000002007490860084600680B49086007B009
:1046B000BDE8F08F0000B4453822CE797CD9724035
:1046C000D40000200000C0429A99999999196D4030
:1046D0004AD8124DFB210940D80000209400002048
:1046E0007047000070B5002100230F22C47804B386
:1046F000154C246804F4E064C4F5E064210AC1F1B7
:104700000403CA40447804FA03F184781440214336
:1047100009010E4C0678A155047804F01F05012408
:10472000AC4005786D11AD0005F1E025C5F80041FC
:1047300009E0047804F01F050124AC40044D06781C
:10474000761145F8264070BD0CED00E000E400E075
:1047500080E100E002490143024A11607047000015
:104760000000FA050CED00E030B587B0002006909F
:104770000024002514223A4901A8FCF711F8394811
:104780000088FEF72DFE67E006AA052101A803F0C8
:1047900001F900245EE0002003F092F9B0F5847F77
:1047A00030D007DCA0F2011050B101281ED0032840
:1047B0004DD120E0A0F2022048B3062847D136E0D0
:1047C0000124069820B1012806D002280BD107E069
:1047D000002000F049F807E0012000F045F803E070
:1047E00006F052F800E000BF00BF32E00124069856
:1047F000401C06902DE0012401251A480088FEF790
:10480000EFFD26E001240698401E069021E00124D9
:1048100000BF0698401C069006AA052101A803F0D7
:10482000B9F8642003F04CF90028F2D111E001241A
:1048300000BF0698401E069006AA052101A803F0B5
:10484000A9F8642003F03CF90028F2D101E000242B
:1048500000BF00BF002C9ED0002D95D007B030BD0A
:10486000B4F000081E00002070B5A4B00646002475
:104870000025FFF793FA0020239012E068460A22F1
:10488000239902FB010019A9239A41F82200239AD7
:1048900051F82200521C3EA1FBF7F6FC2398401C65
:1048A00023903D49098823988842E7DB0020239024
:1048B0003A480088FEF794FD65E023AA364801884F
:1048C00019A803F067F800245BE0002003F0F8F873
:1048D000B0F5847F2BD007DCA0F2011050B1012885
:1048E00019D003284AD11BE0A0F2022020B30628E9
:1048F00044D132E001242399491C88B200F02EF9FA
:1049000002F0D6FCFEF782F8FEF7D4FC23480088BC
:10491000FEF766FD34E001242398401C23902FE02D
:10492000012401251D480088FEF75AFD28E00124D6
:104930002398401E239023E0012400BF2398401CAD
:10494000239023AA1448018819A803F023F86420AF
:1049500003F0B6F80028F1D112E0012400BF23983B
:10496000401E239023AA0C48018819A803F012F8CE
:10497000642003F0A5F80028F1D101E0002400BF75
:1049800000BF002CA1D0002D97D024B070BD000036
:104990004D41502530326400EA0000201E00002006
:1049A000704700002DE9F04102460D46702A01DBF8
:1049B000BDE8F08117464FEAE27C02EB1C7C4FEA2F
:1049C0002C1C0CF1020C4FF0010808FA0CFCDFF86B
:1049D000E480D8F818804CEA080CDFF8D880C8F8D2
:1049E00018C04FEAE27C02EB1C7C4FEA2C1CDFF87B
:1049F000C88058F82C104FEAE27C02EB1C7C4FEA8E
:104A00002C1CA2EB0C1C0CF0FF0007464FEAE07CCC
:104A100000EB5C7C4FEAEC0C01EB8C064FEAE07C8F
:104A200000EB5C7C4FEAEC0CA0EBCC0C4FEA8C6CFE
:104A30004FEA1C6334680F279F40BC4325F0800772
:104A4000062F32D2DFE807F03103070E15230427C3
:104A50009F403C4329E008279F403C430127874073
:104A60000F6122E008279F403C43012787404F61A8
:104A70001BE003279F403C4305F080071FB101273F
:104A800087400F6102E0012787404F610DE0072753
:104A90009F403C4305F080071FB1012787400F610D
:104AA00002E0012787404F6100BF00BF346000BFB4
:104AB0007EE70000001002402400002029B1064AD1
:104AC00052690243044B5A6104E0034A526982432B
:104AD000014B5A61704700000010024029B1064A9C
:104AE000D2690243044BDA6104E0034AD26982438B
:104AF000014BDA61704700000010024029B1064AFC
:104B000012690243044B1A6104E0034A12698243AA
:104B1000014B1A61704700000010024029B1064A9B
:104B200092690243044B9A6104E0034A926982430A
:104B3000014B9A61704700000010024029B1064AFB
:104B4000D2680243044BDA6004E0034AD26882432D
:104B5000014BDA607047000000100240F0B5ADF282
:104B6000C46D054632A207CA0DF5D76307C30020FE
:104B700001900027002400260AE01E2003F0EEFC2E
:104B8000601CC4B21E2C03DD00242CA002F05EFBCE
:104B900000F070FB0028F0D117E01E2003F0DEFCCF
:104BA000601CC4B20A2094FBF0F100FB114030B944
:104BB0002648006880F001002549C1F894011E2CA8
:104BC00003DD002423A002F041FB012225A10DF505
:104BD000916003F0CDFF0028DFD12A4622A10DF518
:104BE000D760FBF751FB01220DF5D76198A803F0C0
:104BF000EDFF064616B11FA002F028FB01AB4FF4F3
:104C0000167202A998A804F097F8064698A803F02F
:104C10009EFF2EB11BA002F019FB0DF2C46DF0BD7A
:104C200002A80199FEF7BEFA1A49088000BFF4E70E
:104C30004D617030312E6D61700000005344206969
:104C40006E6974206661696C656421009401234279
:104C5000000023425344206C6F6164206661696CDC
:104C600065642100303A00004D6170253032642EB9
:104C70006D6170004F70656E206661696C656421BE
:104C80000000000052656164206661696C65642102
:104C900000000000E80000207CB50546002400204C
:104CA0000090019000260DB1022600E00026224867
:104CB000406900F0007008B10E207CBD1F490988D2
:104CC00088B26946FEF7ACF804460CB12046F4E71A
:104CD000019800F4802060B3184800880004184947
:104CE000086037204860402088600020C8604FF48A
:104CF00080600861084600F0A1F83720FDF7D0FC7D
:104D000004460CB12046D8E70D48066006200C4941
:104D10004860402088600020C8604FF480600861CF
:104D2000084600F08BF80620FDF7BAFC0446204642
:104D3000C3E72520C1E70000008001406C0000208F
:104D40005001002001498863704700000080014045
:104D50000149086070470000A00030420146034A44
:104D6000506820F0FF000843506070470080014009
:104D700001490860704700008C05304200210A4B51
:104D800002685A6242689A621A46D16A21F0F701B3
:104D9000D0E902231A4303691A4343691A431143B2
:104DA000014AD1627047000000800140002006499E
:104DB000086048608860C86048628862C8620348CA
:104DC00088630020C863704700800140FF07C0006F
:104DD00001460020034A526B0A400AB1012000E05C
:104DE00000207047008001400248006800F0030086
:104DF000704700000080014010B500F053FC10BD6A
:104E000000210A4A516847F6FF629143027D836898
:104E10001A4343681A43C3681A4303681A43036971
:104E20001A431143014A516070470000008001405D
:104E30000148006870470000808001400021094B54
:104E400002689A601A46D1686FF30A01D0E901231B
:104E50001A43C3681A4303691A431143014AD160D4
:104E600070470000008001400549096821F00301F6
:104E7000034A116011460968014311607047000040
:104E800000800140014908607047000080800140B7
:104E900070B58CB006460C46154601210220FFF77E
:104EA0000DFE1348FDF7ECFC00211148FDF7DCFC7A
:104EB0001048019002960395A008049000200590E8
:104EC00080200690800007908000089000200990C4
:104ED0004FF400500A9000200B9001A90448FDF700
:104EE00075FD00210248FDF7BFFC0CB070BD00004D
:104EF000440402408080014070B5044600251648F5
:104F00000078032801D1272070BD1348007838B1FC
:104F100011480078012803D00F480078022818D1E2
:104F2000022C01D32720EFE7E0B2FFF7B5FE0546DC
:104F30007DB90A48406820F4C050084948600846D6
:104F40004068A1B240EAC120044948600846406870
:104F500048602846D8E70000680000200080014033
:104F6000F0B5014600200022BE4B1B7881F8563078
:104F7000BD4B1B88A1F85430BC4B1B681A0E93091B
:104F80000B70C2F383034B7002F003038B70B74BBB
:104F90001B68C3F30742CA70B44B1B88C3F30722D4
:104FA0000A71B24B1A784A715B681A0E1301CB80F2
:104FB000AE4B5B68C3F30742CB8843EA1213CB8046
:104FC00002F00F030B72A94B9B88C3F30722D3098E
:104FD0004B72C2F380138B72C2F34013CB72C2F3D5
:104FE00000130B7300234B739E4B1B783BB19D4BFF
:104FF0001B78012B03D09B4B1B78032B4FD19307BE
:105000001B0D0B61994B1A790B6943EA82030B6103
:10501000964B9B681A0E0B6943EA92130B61C2F31D
:10502000C2030B7502F007034B75904B9B68C3F3EB
:10503000074253098B75C2F38203CB7593075B0F4D
:105040000B768A4B1B89C3F307220B7E43EAD213EC
:105050000B760B695B1C0024C1E912340B7E9B1C90
:10506000012404FA03F3DC17D1E91256A5FB037CF3
:1050700006FB03C305FB0433C1E912730C7A012359
:10508000A3400B650024D1E912650B6DA6FB037CE0
:1050900005FB03C306FB0433C1E912732EE0714B19
:1050A0001B78022B2AD1714B1A7993069B0A0B614C
:1050B0006E4B9B681A0E0B6943EA02230B616B4B24
:1050C0009B68C3F307420B6913430B61674B1B8952
:1050D000C3F307220B695B1C4FF40074A3FB044667
:1050E0004FF480630025A4FB037C06FB03C304FB91
:1050F0000533C1E912734FF400730B65C2F38013DB
:1051000001F8193F93065B0E4B70584B1A7A4B7897
:1051100043EAD2134B7002F07F038B70534BDB6872
:105120001A0ED309CB70C2F341130B71C2F3820381
:105130004B7193071B0F8B714C4BDB68C3F307421A
:105140008B7943EA92138B71C2F34013CB71002326
:105150000B7202F001034B72444B9B89C3F307228D
:10516000D3098B72C2F38013CB72C2F340130B735B
:10517000C2F300134B73C2F381038B7302F003037A
:10518000CB733A4B1A7B53080B7401234B74384B87
:105190001B681A0ECA741939354B1B68C3F30742D2
:1051A0001402CC85324B1B88C3F30722CB8D1343EB
:1051B000CB852F4B1A7814060C635B681A0E0B6BA9
:1051C00043EA02440C632A4B5B68C3F307420B6B50
:1051D00043EA02240C63264B9B88C3F307220B6B24
:1051E00013430B63224B1A7934235A54204B9B6888
:1051F0001A0E35235A541E4B9B68C3F307421406FC
:105200008C631B4B1B89C3F307228B6B43EA02445D
:105210008C63174B1A7A8B6B43EA02248C63144B12
:10522000DB681A0E8B6B13438B63114BDB68C3F384
:1052300007423C235B5C43EA12143C235C54130793
:105240001C0DCC870A4B9B89C3F30722CB8F1343DA
:10525000CB87074B1A7B540840235C54012441231D
:105260005C54F0BD680000206C0000207C01002030
:105270008C0100207CB50025002401213020FFF79F
:105280004DFC012140F20240FFF718FC4FF4F850AA
:10529000ADF8000018208DF8030003208DF80200FF
:1052A00069463048FDF7EAFE0420ADF800001820FA
:1052B0008DF8030003208DF8020069462A48FDF7A7
:1052C000DDFE8020ADF8000048208DF803000320AB
:1052D0008DF8020069462448FDF7D0FEFFF766FD11
:1052E00031208DF8040000208DF805008DF80600AF
:1052F00001208DF8070001A8FFF7F4F900F0E4F8A9
:10530000044614B900F036F804461CB91748FFF7F4
:1053100027FE044634B91549B1F85410080400F0CA
:105320004BFD04461CB90120FFF7E6FD04461CB105
:105330000F480078032812D10C4890F8560020B18D
:105340000A4890F85600012801D10A2500E00425FA
:105350002846FFF703FD002000F046FD04462046E6
:105360007CBD00000010014000140140A00100209D
:105370006800002038B5002401200090FFF734FDBC
:1053800008B9252038BD4A480078042821D00020DB
:105390004849086002204860C02088600020C8603A
:1053A0004FF4806008610846FFF748FDFDF7A8F953
:1053B00004460CB12046E5E73F4840693F49086094
:1053C0003D48806948603C48C06988603A48006A46
:1053D000C8603748007858B135480078012807D0B0
:1053E00033480078062803D031480078022816D1C7
:1053F0000020304908600320486040208860002079
:10540000C8604FF4806008610846FFF717FD6946E1
:105410000320FDF7BBF904460CB12046B2E724484F
:105420000078032816D1BDF8000000042149086067
:1054300003204860402088600020C8604FF48060EE
:1054400008610846FFF7FAFCFDF75AF904460CB16B
:10545000204697E716480078042827D0BDF80000BA
:1054600017490860BDF800000004124908600920CF
:105470004860C02088600020C8604FF480600861E8
:105480000846FFF7DBFCFDF73BF904460CB120466C
:1054900078E7094840690B49086007488069486017
:1054A0000548C06988600448006AC860002069E750
:1054B0006800002050010020008001408C01002085
:1054C0006C0000207C0100202DE9F047002700241B
:1054D00000260025A046A146B2206C490875002090
:1054E000086048608860C86008610846FFF788FC6B
:1054F0000320FFF7B9FC0120FFF72AFC00BF12E0F0
:1055000000206349086048608860C8604FF480608C
:1055100008610846FFF792FCFDF7A9F8044604B9B4
:1055200003E0781CC7B24A2FEADB00BF14B1204663
:10553000BDE8F0874FF4D5705549086008204860F1
:10554000402088600020C8604FF4806008610846F1
:10555000FFF774FCFDF762F9044624B901204D49B8
:1055600008704FF0804900204949086037204860A2
:10557000402088600020C8604FF4806008610846C1
:10558000FFF75CFC3720FDF78BF80446002C4BD16D
:1055900034E000203E4908603720486040208860A1
:1055A0000020C8604FF4806008610846FFF746FCA1
:1055B0003720FDF775F804460CB12046B8E73648A9
:1055C00049EA00003249086029204860402088608C
:1055D0000020C8604FF4806008610846FFF72EFC89
:1055E000FDF7B8F804460CB12046A1E72B48466900
:1055F000012080EAD67080F001086D1CB8F1000F20
:1056000003D14FF6FF708542C3D34FF6FF7085423A
:1056100002D31B2420468BE706F08040060032D0E0
:1056200002201C4908702EE01CE01D481849086043
:1056300001204860402088600020C8604FF48060EE
:1056400008610846FFF7FAFBFDF784F804460CB141
:1056500020466DE711484669012080EAD67080F047
:1056600001086D1CB8F1000F03D14FF6FF708542A1
:10567000DBD34FF6FF70854202D31B24204657E749
:10568000032004490870204652E70000380100203A
:1056900050010020680000200000108000800140C0
:1056A0000080FF8010B54948406B00F4807070B3F3
:1056B00047480078012814D10020464908600C2092
:1056C0004860402088600020C8604FF48060086116
:1056D0000846FFF7B3FB0C20FCF7E2FF3E490870D9
:1056E00002E000203C4908703848806B40F480702C
:1056F000364988630846C06B4CF23A3188433349D7
:10570000C8630120354908703348007810BDFFE7B1
:105710000220FFF75DFB68B10220FFF713FB2B4867
:10572000C06B4CF23A3188432849C86302202A49A9
:105730000870EBE70820FFF74BFB68B10820FFF784
:1057400001FB2248C06B4CF23A3188431F49C863C1
:10575000042021490870D9E72020FFF739FB68B100
:105760002020FFF7EFFA1948C06B4CF23A3188431A
:105770001649C863062018490870C7E71020FFF7CC
:1057800027FB68B11020FFF7DDFA1048C06B4CF220
:105790003A3188430D49C86305200F490870B5E7C1
:1057A0004FF40070FFF714FB70B14FF40070FFF777
:1057B000C9FA0648C06B4CF23A3188430349C863C2
:1057C000072005490870A1E700209FE700800140FD
:1057D00071000020500100207200002073000020A2
:1057E0002DE9F84F8146174698460A9C4FF0000A6B
:1057F000D3464D464FF0FF36B9F1000F02D12620B7
:10580000BDE8F88F00208249C862824800780228EB
:1058100005D10402780A40EAC8574FEA68280020F8
:105820007D4988604860401E086001204861002072
:10583000C86008610846FFF7A1FA7548406900F0A2
:10584000007008B10E20DBE7002C21DDB4F5006FFD
:105850001EDC601E2040D8B9204602F0D1FC00902A
:105860006E48046010206D49486040208860002028
:10587000C8604FF4806008610846FFF7DFFA102027
:10588000FCF70EFF8246BAF1000F03D05046B7E78F
:105890002620B5E7009800015F498860084644600B
:1058A0004FF0FF300860012048610220C8600020EE
:1058B00008610846FFF762FA584807601120574907
:1058C0004860402088600020C8604FF48060086114
:1058D0000846FFF7B3FA1120FCF7E2FE8246BAF160
:1058E000000F01D050468BE74D48007800285AD170
:1058F000FDF78EFC18E04FF40040FFF769FA78B12D
:105900004FF0000B06E042488030006845F82B005D
:105910000BF1010BBBF1080FF5D32035414E03E02D
:105920000EB904206CE7761E3948406B40F22A61BC
:1059300008400028DFD00820FFF74AFA20B10820ED
:10594000FFF700FA04205BE70220FFF741FA20B1DD
:105950000220FFF7F7F9022052E72020FFF738FA7C
:1059600020B12020FFF7EEF9062049E74FF4007040
:10597000FFF72EFA28B14FF40070FFF7E3F9072084
:105980003EE703E0FFF754FA28602D1D4FF40010A6
:10599000FFF71EFA0028F5D1FDF73CFC40F2FF505E
:1059A000FFF7D0F931E01E48007801282DD1002200
:1059B00021464846FFF76CFA00201B4908701B4936
:1059C00008701B4908701248C06B40F22A31084326
:1059D0000F49C8630120FFF7CBF900E0761E154898
:1059E000006800F4005038B91148007820B90E481A
:1059F000007808B9002EF1D10EB9042000E70A485A
:105A0000007810B1084890F800A05046F8E6000071
:105A10000080014068000020640100205001002047
:105A200070000020FFFF7F00720000207100002046
:105A300073000020000402402DE9FE4F83460C460F
:105A4000914600200290002625462C46700240EA2E
:105A5000D5566D020BF00300F0B14FF0000A18E0CC
:105A60004FF4007000904FEA4A20471946EBE0736C
:105A70003A461648FFF7B4FE02904FF400721349FD
:105A80005846FAF748FE0BF5007B0AF1010000F0DA
:105A9000FF0ACA45E4DB16E0B9F1010F09D14FF462
:105AA00000702A46334600905846FFF799FE029050
:105AB00009E04FF400702A463346CDE90009584604
:105AC00000F006F802900298BDE8FE8FF801002071
:105AD0002DE9FF5F17469846DDE90E464FF00009B5
